:020000040000FA
:10000000A0020010690100007101000073010000EE
:100010007501000077010000790100000000000078
:100020000000000000000000000000007B01000054
:100030007D010000000000007F0100008101000040
:1000400083010000830100008301000083010000A0
:100050008301000083010000830100008301000090
:100060008301000083010000830100008301000080
:100070008301000083010000830100008301000070
:100080008301000083010000830100008301000060
:100090008301000083010000830100008301000050
:1000A0008301000083010000830100008301000040
:1000B0008301000083010000830100008301000030
:1000C00083010000830100008301000000F002F8BA
:1000D00000F03AF80AA090E8000C82448344AAF1A8
:1000E0000107DA4501D100F02FF8AFF2090EBAE8A6
:1000F0000F0013F0010F18BFFB1A43F0010318475C
:10010000E80F000008100000103A24BF78C878C13A
:10011000FAD8520724BF30C830C144BF04680C600D
:10012000704700000023002400250026103A28BF55
:1001300078C1FBD8520728BF30C148BF0B60704759
:100140001FB51FBD10B510BD00F04CFB1146FFF7E9
:10015000F7FF00F085FA00F06AFB03B4FFF7F2FF47
:1001600003BC00F06FFB00000948804709480047C6
:10017000FEE7FEE7FEE7FEE7FEE7FEE7FEE7FEE757
:10018000FEE7FEE704480549034A054B70470000B7
:10019000A9040000CD000000A0000010A002001083
:1001A000A000001000204FF04021086746F2A71081
:1001B000C86002204860704702204FF0402148602C
:1001C00001204860704700204FF0402148600846F9
:1001D0008068704702214FF0402251600121516038
:1001E00000BF4FF0402189688142FAD300214FF0CF
:1001F00040225160704700B503464FF47A7103FB0B
:1002000001F0FFF7E7FF00BD53EA020C00F0698040
:100210002DE9F04B4FF00006002B1FBFB3FA83F51A
:1002200003FA05F424FA05F65E4012BF1643B2FA4B
:1002300082F502FA05F4C5F120051EBF22FA05FC7D
:1002400044EA0C04203556EA044C4FEA144418BF23
:10025000641C4FF000084FF00009904271EB030C52
:1002600039D3002919BFB1FA81F701FA07F6B0FABC
:1002700080F700FA07F6C7F120071EBF20FA07FC37
:1002800046EA0C062037B6FBF4FCA7EB0507103F47
:1002900007F01F0BCBF120060CFA0BFB2CFA06F62D
:1002A00044BFB3460026202FA4BF5E464FF0000B8C
:1002B0005BEA060C08BF4FF0010B19EB0B09ABFB17
:1002C000027C48EB0608C01B06FB02CC0BFB03CCF0
:1002D00071EB0C01C1E70B46024641464846BDE8BA
:1002E000F08B13B54FF000004FF00001AFF300802A
:1002F000BDE81C407047704770477047FFFFFFFF25
:100300002DE9F047B1480068C0F3016003287CD1B3
:10031000AF48006810F0030006D0012833D002284F
:100320005FD003282ED100E000BFA8480068C0F3CA
:10033000074000F101044FF00201A648D0F8880000
:10034000C0F30E0000F10100A1FB0001A24B4FF031
:10035000000CA0FB037901FB039100FB0C1122466A
:1003600063463846FFF750FF05469C480068C0B218
:1003700000F1010422464FF000032846FFF744FF36
:10038000974908605DE091480068C0F3074000F1BC
:1003900001044FF002018F48D0F88800C0F30E002E
:1003A00000F10100A1FB00108E4A4FF0000CA1FBF0
:1003B000027900FB029001FB0C012246634638469D
:1003C000FFF722FF054685480068C0B200F101042E
:1003D00022464FF000032846FFF716FF80490860C9
:1003E0002FE07A480068C0F3074000F101044FF0A5
:1003F00002017848D0F88800C0F30E0000F1010037
:10040000A1FB00124FF4004000E01BE04FF000039E
:10041000A1FB007902FB009001FB03012246384654
:10042000FFF7F2FE05466D480068C0B200F1010416
:1004300022464FF000032846FFF7E6FE68490860B1
:1004400000BF2FE06248006810F0030006D00128CA
:1004500010D0022819D0032823D100E000BF5F4844
:100460000068C0B200F101005B49B1FBF0F05C49EB
:10047000086016E059480068C0B200F1010059490F
:10048000B1FBF0F0564908600BE054480068C0B278
:1004900000F101004FF40041B1FBF0F05049086059
:1004A00000BF00BFBDE8F08720204F4908604948E1
:1004B000D0F8A00110F0200F05D000BF4A48006816
:1004C00010F0400FFAD00320444908604FF00000BC
:1004D0004049C1F8A801454908604FF001003C4976
:1004E00008604348434908604FF0AA004249086049
:1004F0004FF0550008604FF00100404908604FF090
:10050000AA003D4908604FF055003249C1F88C00FF
:1005100000BF2E48006810F0806FFAD003203749E2
:1005200008604FF0AA002B49C1F88C004FF055002D
:100530003149086000BF2548006800F04070B0F104
:10054000407FF8D123202E4908604FF0AA002149AE
:10055000C1F8AC004FF055002A4908604FF0010087
:10056000294908604FF0AA00264908604FF055005D
:100570001849C1F8AC0000BF2448006810F4806F2F
:10058000FAD00320204908604FF0AA001149C1F8B1
:10059000AC004FF055001B49086000BF1B480068C5
:1005A00000F44070B0F5407FF8D11948194908604F
:1005B0004FF000000749C1F8C8010846006820F460
:1005C000704040F4804008607047000088C00F40D1
:1005D0000CC10F4000C00F4000093D0004C10F4096
:1005E00000000010001BB700A0C10F40ACC10F40BD
:1005F0006300050084C00F408CC00F4080C00F40D6
:10060000A4C00F40ACC00F40A0C00F40A8C00F4016
:10061000DE872804C4C00F4010B500210320032149
:1006200000201AE0604B53F82130604C6363604B4C
:100630001B5C604CE35C604C236023461B681B0121
:100640005A4C6361002200E0521C5C4B9A42FBDB77
:100650000023564C6361491E401C0328E2DD10BD97
:10066000FFF722FFFFF74CFEFFF79CFD4FF47F6082
:100670004E4908604FF0F06008620846006840F498
:10068000000008600846006820F080700860084696
:10069000C06940F40000C86100204949086073E067
:1006A00000204849086046490860444846490860B7
:1006B0003E48406940F400003C4948610A20FFF789
:1006C00089FD3A48C06940F400003849C86100BF5C
:1006D0003648406910F0807FFAD0FFF76DFD00BF0B
:1006E0003248406910F0807FFAD1FFF76CFD354940
:1006F00008600846006800F037FA0646334A344B73
:1007000000F04AFA044600224FF0804300F0D4F88B
:10071000804600F09FF82A4908602E492848006862
:1007200000F016FC2649086003202B49086000BF32
:100730002348006800F0F0FB0A2190FBF1F201FB76
:100740001200C1B21A48244A1268815423491C4835
:10075000006800F01FFB1A4908601F48006800B9D4
:1007600005E01D480068401E1B490860E0E700BF27
:10077000FFF752FF04E014480068401E1249086069
:10078000114800680028F6D18AE700204FF0402188
:100790000867022048604861C860114888611120DC
:1007A000C8630120486070471400001000C0092091
:1007B000240000100400001038000010A086010082
:1007C0002C0000102800001034000010006F81047D
:1007D000C58FA13F0000C84230000010000020413A
:1007E000BFC62D00754600F029F8AE4605006946E3
:1007F000534620F00700854618B020B5FFF7C2FC2D
:10080000BDE820404FF000064FF000074FF0000811
:100810004FF0000B21F00701AC46ACE8C009ACE892
:10082000C009ACE8C009ACE8C0098D467047044671
:10083000AFF300802046FFF790FC000000487047AF
:100840003C00001001491820ABBEFEE72600020064
:100850007047000021F00042A2F16052B2F5801F03
:1008600001F0004328BFD2F17F6C0BD95FEA001C76
:1008700043EAC20242EB507018BF704728BF20F015
:1008800001007047B2F5801FBCBF184670474FEAA1
:10089000410C1CF5001F02D2084600F020BC70B5C8
:1008A00000F024FA00000089FFF7F6BF4FF0004087
:1008B000A0F58000704700002DE9C04130B4DFF89A
:1008C000A0C23CEA111418BF3CEA131400F0EC80FB
:1008D00081EA03051CEA111444EAD57418BF1CEA26
:1008E000131500F0C780A4EB05044FF0004545EA5E
:1008F000C12145EAC32341EA505143EA525304F16E
:100900007F74994204F500344FEAC0204FEAC222B6
:1009100008BF904200F09C804FEA13650FF240162A
:10092000765D4FEA134506FB05F7C7F1807706FBB6
:1009300007F74FEAD737A7FB03687642C8F5803838
:10094000A7FB06CE38BFA8F1010807FB08E64FF069
:10095000000EA6FB028CE6FB03CEDCF1000CCEF110
:10096000004E38BFAEF1010EA6FB0C584FF0000749
:100970004FF00005E6FB0E87A1FB08C6A0FB07CEE3
:1009800016EB0E0645F10005E1FB076515F1E04E9B
:100990007EBFA4F580345FEA46066D4116F18007FC
:1009A00045F100054FEA17274FEA066647EA056753
:1009B000A6F1DE46B6F1805F4FEA15251FD938460D
:1009C00024F0010C05EBC471BCF1FE6F01EB0C11BE
:1009D00002D8F0BCBDE8008124425CBF01F5801E56
:1009E0009EEAC47F02D4F0BCBDE80081244238D422
:1009F000F0BCA1F1C041BDE8004100F0C5B94FEA2B
:100A0000D22242EA43524FEAD323A7FB02864FEA9F
:100A1000D02040EA415007FB03661EEA0E0F4FEA62
:100A2000D12105FB026658BFA6EB0056B6EB005677
:100A30004FEA520E4EEAC37E18EB0E0E56EB530EE3
:100A4000BDD518EB02085E417F1C55F10005B6E7E5
:100A50004FF480154FF000074FF000064FF00008EC
:100A6000ADE7F0BC4FF0000001F1C04101F00041E2
:100A7000BDE8008111EA0C1F0CEA131500D00CE050
:100A800013EA0C1F00F025804FF00000F0BC81EA53
:100A9000030101F00041BDE80081F0BCBDE8004168
:100AA00081EA030100F070B9F0BCBDE8004170B507
:100AB00000F01CF9097EFC3E00F007B881EA030152
:100AC0004FF0000001F00041704781EA030100F09F
:100AD0005BB9F0BCBDE800414FF000002149704710
:100AE000FFFDFBF9F7F5F4F2F0EEEDEBE9E8E6E4F3
:100AF000E3E1E0DEDDDBDAD8D7D5D4D3D1D0CFCD7A
:100B0000CCCBCAC8C7C6C5C4C2C1C0BFBEBDBCBBB2
:100B1000BAB9B8B7B6B5B4B3B2B1B0AFAEADACABAD
:100B2000AAA9A8A8A7A6A5A4A3A3A2A1A09F9F9E87
:100B30009D9C9C9B9A999998979796959594939339
:100B4000929191908F8F8E8E8D8C8C8B8B8A8989D0
:100B50008888878786858584848383828281818053
:100B60000000FF070000F87F10F0004248BF40423D
:100B7000B0FA80F310FA03F10AD0C3F11D0303F5B4
:100B800080634FEA415002EB035202EBD1217047E0
:100B90004FF0000070470000DFF848C170B51CEA54
:100BA000111E1EBF1CEA13159EEA0C0F95EA0C0FCE
:100BB00000F06F8081EA030423EA4C134EEAD47EEE
:100BC00021EA4C1141F4801143F48013AE44A1FB9F
:100BD000024CA0FB0365AEF17F7E361955EB0C0588
:100BE000A1FB034C4CF10003A0FB021C16EB0C060E
:100BF000654153F10003094218BF46F0010613F4A2
:100C0000007F0BD14FEA03314FEA0530340341EA4C
:100C1000155140EA16506FF003020AE04FEAC32173
:100C20004FEAC520F40241EA555140EA56506FF0B0
:100C3000020202EB2E4201EB025585EACE710AD088
:100C40005FEA440C18BF24F0004450F1000041F169
:100C5000000120EAD47040F2FE7C624500D270BDF3
:100C6000A84214BF4FF080444FF04044002E08BF0C
:100C70000024BEF1806FA8BFA1F1C041BDE8704063
:100C800080F282804FF0000001F1C04101F000418C
:100C900070479EEA0C0F0CEA131518BF95EA0C0F6B
:100CA00006D04FF0000081EA030E0EF0004170BD47
:100CB00000F01CF88900013E00F007B800F009B808
:100CC0004FEA430C5FEA5C5C08D081EA030100F064
:100CD0005BB84FEA410C5FEA5C5CF6D14FF0000074
:100CE000014970470000FF070000F87F0EF1020E77
:100CF0002EF0030E5EF8046B364205D4012A43EB56
:100D0000030515F5001F12D8012841EB010C1CF555
:100D1000001F0CD80ED14FEAD17C15F5001F0CEB4B
:100D20004C0C0CF1020C08BF4CEBD37C04E04FF0F0
:100D3000080C01E04FEAD37C0CEB4C0526FA05F6D3
:100D400006F00706B6F1040C06D20EEB860CBDE8E1
:100D500070404CF0010C6047DFE80CF0090B020218
:100D60004FF000414FF00000A1F5002170BD194681
:100D70001046012851EB010418BFD4F5001484BFBC
:100D8000002001F0004170BD0808A0F500114FEAF5
:100D9000310170474FF47F0C1CEAD0121EBF1CEAD1
:100DA000D11392EA0C0F93EA0C0F00F0858090EAC1
:100DB000010F48BF42F4807240F4000C41F400007F
:100DC0002CF07F4120F07F4000B58142A2EB03026E
:100DD0000FF2081CACEB504EC0F100009EF800E092
:100DE0004FEA4E0E00FB0EFC38BF49004FEA2C1CA8
:100DF00002F5FA020CFB0EF34FEACE1E4FEA112C5D
:100E00004FEAC1210EEB635E42EB22420EFB0CFC6B
:100E10004FEA1C5300FB03114FEA112C4FEA01313A
:100E20000EFB0CFC4FEADC4C00FB0C11C14228BF4E
:100E300009184CEB03335DF804EB10EB410143EB75
:100E4000C250B2F57C0F38BF704729D512F0F00FB1
:100E50001CBF00F1C04000F0004070470081828359
:100E60008485868788898B8C8D8E8F9192939596B9
:100E700097999A9C9D9FA0A2A3A5A7A8AAACAEB043
:100E8000B2B3B5B7B9BCBEC0C2C5C7C9CCCED1D448
:100E9000D7D9DCDFE2E6E9ECF0F3F7FAFE00000078
:100EA0004FEA400C0CF1807CBCF17E4F28BF7047AC
:100EB000B0F1C04000F013B990EA010F0CEAD11371
:100EC00048BF42F48072624538BF634507D213F4CD
:100ED0007F0F16D080EA010000F00040704710B587
:100EE00000F0B7F8097EFC3E00F005B880EA01008A
:100EF00000F00040704780EA010000F0004000F080
:100F0000EEB812F47F0F04BF0248704780EA010078
:100F100000F0E5B80000C07F41000B0ED3F19E0247
:100F200008D950F400034FEA032323FA02F048BF24
:100F30004042704710B500F08CF800BF4992248001
:100F4000002070476FF0004282EA200070470000E6
:100F50004FF47F0C1CEAD0121EBF1CEAD11392EA98
:100F60000C0F93EA0C0F00F0478090EA010F48BF86
:100F700042F480724FF0004C4CEA00204CEA012110
:100F800002EB0302A0FB0113A2F50002002918BF27
:100F900043F001035B0028BF4FEA330342EB2242D8
:100FA0005FEA132C4CEBC2502EBFBCEB436FB2F583
:100FB0007C0F70474FEA036CBCF1004F08BF20F074
:100FC0000100B2F57C0F38BF70470BD582F0FF02ED
:100FD00012F5803FC8BF704700F1C040D8BF00F095
:100FE0000040704700F5000C5FEA4C0C48BF7047AA
:100FF000B0F1C04000F073B890EA010F0CEAD113D1
:1010000048BF42F48072624538BF634504D280EA2B
:10101000010000F00040704710B500F01AF800BF62
:101020008900013E00F007B800F009B85FEA410C02
:101030005FEA1C6C08D080EA010000F050B85FEA5B
:10104000400C5FEA1C6CF6D14FF00040A0F5800028
:1010500070470EF1020E2EF0030E5EF8044B244290
:1010600004D44FEA4102B2F17F4F11D84FEA400356
:10107000B3F17F4F0CD80ED14FEAD07CB2F17F4F45
:101080000CEB4C0C0CF1020C08BF4CEBD17C04E0D7
:101090004FF0080C01E04FEAD17C0CEB4C0324FA32
:1010A00003F404F00704B4F1040C06D20EEB840C34
:1010B000BDE810404CF0010C6047DFE80CF0070879
:1010C00002024FF00040A0F5800010BD084642002B
:1010D00018BFD2F1807288BF00F0004010BDFF2120
:1010E00041EAD050C0057047081100000000001010
:1010F0003C00000008010000441100003C0000100A
:10110000640200002401000000E1F5053F065B4F8A
:10111000666D7D077F6F777C395E79710000000016
:1011200000008000000000010000800100000000BD
:1011300000000000000000000000000000000000AF
:0411400000000000AB
:04000005000001698D
:00000001FF
